{
  "_format": "hh-sol-artifact-1",
  "contractName": "CredentialRegistry",
  "sourceName": "contracts/CredentialRegistry.sol",
  "abi": [
    {
      "anonymous": false,
      "inputs": [
        {
          "indexed": false,
          "internalType": "string",
          "name": "credentialId",
          "type": "string"
        },
        {
          "indexed": false,
          "internalType": "string",
          "name": "issuerDid",
          "type": "string"
        },
        {
          "indexed": false,
          "internalType": "string",
          "name": "holderDid",
          "type": "string"
        },
        {
          "indexed": false,
          "internalType": "string",
          "name": "ipfsHash",
          "type": "string"
        },
        {
          "indexed": false,
          "internalType": "string",
          "name": "signature",
          "type": "string"
        },
        {
          "indexed": false,
          "internalType": "uint256",
          "name": "issuedAt",
          "type": "uint256"
        }
      ],
      "name": "CredentialRegistered",
      "type": "event"
    },
    {
      "anonymous": false,
      "inputs": [
        {
          "indexed": false,
          "internalType": "string",
          "name": "credentialId",
          "type": "string"
        },
        {
          "indexed": false,
          "internalType": "uint256",
          "name": "revokedAt",
          "type": "uint256"
        }
      ],
      "name": "CredentialRevoked",
      "type": "event"
    },
    {
      "inputs": [
        {
          "internalType": "string",
          "name": "credentialId",
          "type": "string"
        }
      ],
      "name": "getCredential",
      "outputs": [
        {
          "internalType": "string",
          "name": "issuerDid",
          "type": "string"
        },
        {
          "internalType": "string",
          "name": "holderDid",
          "type": "string"
        },
        {
          "internalType": "string",
          "name": "ipfsHash",
          "type": "string"
        },
        {
          "internalType": "string",
          "name": "signature",
          "type": "string"
        },
        {
          "internalType": "enum CredentialRegistry.CredentialStatus",
          "name": "status",
          "type": "uint8"
        },
        {
          "internalType": "uint256",
          "name": "issuedAt",
          "type": "uint256"
        },
        {
          "internalType": "uint256",
          "name": "revokedAt",
          "type": "uint256"
        }
      ],
      "stateMutability": "view",
      "type": "function"
    },
    {
      "inputs": [
        {
          "internalType": "string",
          "name": "credentialId",
          "type": "string"
        },
        {
          "internalType": "string",
          "name": "issuerDid",
          "type": "string"
        },
        {
          "internalType": "string",
          "name": "holderDid",
          "type": "string"
        },
        {
          "internalType": "string",
          "name": "ipfsHash",
          "type": "string"
        },
        {
          "internalType": "string",
          "name": "signature",
          "type": "string"
        }
      ],
      "name": "registerCredential",
      "outputs": [],
      "stateMutability": "nonpayable",
      "type": "function"
    },
    {
      "inputs": [
        {
          "internalType": "string",
          "name": "credentialId",
          "type": "string"
        }
      ],
      "name": "revokeCredential",
      "outputs": [],
      "stateMutability": "nonpayable",
      "type": "function"
    }
  ],
  "bytecode": "0x608060405234801561001057600080fd5b50611216806100206000396000f3fe608060405234801561001057600080fd5b50600436106100415760003560e01c8063388afdf2146100465780635e9a2d2814610062578063d091187f1461007e575b600080fd5b610060600480360381019061005b91906108c9565b6100b4565b005b61007c600480360381019061007791906109e6565b610402565b005b610098600480360381019061009391906109e6565b610564565b6040516100ab9796959493929190610b53565b60405180910390f35b60008a8a9050116100fa576040517f08c379a00000000000000000000000000000000000000000000000000000000081526004016100f190610c2a565b60405180910390fd5b60008a8a60405161010c929190610c89565b908152602001604051809103902060070160009054906101000a900460ff161561016b576040517f08c379a000000000000000000000000000000000000000000000000000000000815260040161016290610cee565b60405180910390fd5b60405180610100016040528089898080601f016020809104026020016040519081016040528093929190818152602001838380828437600081840152601f19601f82011690508083019250505050505050815260200187878080601f016020809104026020016040519081016040528093929190818152602001838380828437600081840152601f19601f82011690508083019250505050505050815260200185858080601f016020809104026020016040519081016040528093929190818152602001838380828437600081840152601f19601f82011690508083019250505050505050815260200183838080601f016020809104026020016040519081016040528093929190818152602001838380828437600081840152601f19601f820116905080830192505050505050508152602001600060028111156102b3576102b2610ac3565b5b8152602001428152602001600081526020016001151581525060008b8b6040516102de929190610c89565b908152602001604051809103902060008201518160000190816103019190610f49565b5060208201518160010190816103179190610f49565b50604082015181600201908161032d9190610f49565b5060608201518160030190816103439190610f49565b5060808201518160040160006101000a81548160ff0219169083600281111561036f5761036e610ac3565b5b021790555060a0820151816005015560c0820151816006015560e08201518160070160006101000a81548160ff0219169083151502179055509050507f0834594838088e02bd15a8d58cf55f57bffd6f1b4dee8c143e56fc8e0e16b6f78a8a8a8a8a8a8a8a8a8a426040516103ee9b9a99989796959493929190611048565b60405180910390a150505050505050505050565b6000808383604051610415929190610c89565b908152602001604051809103902090508060070160009054906101000a900460ff16610476576040517f08c379a000000000000000000000000000000000000000000000000000000000815260040161046d90611122565b60405180910390fd5b6000600281111561048a57610489610ac3565b5b8160040160009054906101000a900460ff1660028111156104ae576104ad610ac3565b5b146104ee576040517f08c379a00000000000000000000000000000000000000000000000000000000081526004016104e59061118e565b60405180910390fd5b60018160040160006101000a81548160ff0219169083600281111561051657610515610ac3565b5b02179055504281600601819055507f40ca72f89b44ef1c7e10d0b86020fdac3c7a112e6ef1cecc6280892cee95f777838342604051610557939291906111ae565b60405180910390a1505050565b60608060608060008060008060008a8a604051610582929190610c89565b908152602001604051809103902090508060070160009054906101000a900460ff166105e3576040517f08c379a00000000000000000000000000000000000000000000000000000000081526004016105da90611122565b60405180910390fd5b806000018160010182600201836003018460040160009054906101000a900460ff168560050154866006015486805461061b90610d6c565b80601f016020809104026020016040519081016040528092919081815260200182805461064790610d6c565b80156106945780601f1061066957610100808354040283529160200191610694565b820191906000526020600020905b81548152906001019060200180831161067757829003601f168201915b505050505096508580546106a790610d6c565b80601f01602080910402602001604051908101604052809291908181526020018280546106d390610d6c565b80156107205780601f106106f557610100808354040283529160200191610720565b820191906000526020600020905b81548152906001019060200180831161070357829003601f168201915b5050505050955084805461073390610d6c565b80601f016020809104026020016040519081016040528092919081815260200182805461075f90610d6c565b80156107ac5780601f10610781576101008083540402835291602001916107ac565b820191906000526020600020905b81548152906001019060200180831161078f57829003601f168201915b505050505094508380546107bf90610d6c565b80601f01602080910402602001604051908101604052809291908181526020018280546107eb90610d6c565b80156108385780601f1061080d57610100808354040283529160200191610838565b820191906000526020600020905b81548152906001019060200180831161081b57829003601f168201915b5050505050935097509750975097509750975097505092959891949750929550565b600080fd5b600080fd5b600080fd5b600080fd5b600080fd5b60008083601f84011261088957610888610864565b5b8235905067ffffffffffffffff8111156108a6576108a5610869565b5b6020830191508360018202830111156108c2576108c161086e565b5b9250929050565b60008060008060008060008060008060a08b8d0312156108ec576108eb61085a565b5b60008b013567ffffffffffffffff81111561090a5761090961085f565b5b6109168d828e01610873565b9a509a505060208b013567ffffffffffffffff8111156109395761093861085f565b5b6109458d828e01610873565b985098505060408b013567ffffffffffffffff8111156109685761096761085f565b5b6109748d828e01610873565b965096505060608b013567ffffffffffffffff8111156109975761099661085f565b5b6109a38d828e01610873565b945094505060808b013567ffffffffffffffff8111156109c6576109c561085f565b5b6109d28d828e01610873565b92509250509295989b9194979a5092959850565b600080602083850312156109fd576109fc61085a565b5b600083013567ffffffffffffffff811115610a1b57610a1a61085f565b5b610a2785828601610873565b92509250509250929050565b600081519050919050565b600082825260208201905092915050565b60005b83811015610a6d578082015181840152602081019050610a52565b60008484015250505050565b6000601f19601f8301169050919050565b6000610a9582610a33565b610a9f8185610a3e565b9350610aaf818560208601610a4f565b610ab881610a79565b840191505092915050565b7f4e487b7100000000000000000000000000000000000000000000000000000000600052602160045260246000fd5b60038110610b0357610b02610ac3565b5b50565b6000819050610b1482610af2565b919050565b6000610b2482610b06565b9050919050565b610b3481610b19565b82525050565b6000819050919050565b610b4d81610b3a565b82525050565b600060e0820190508181036000830152610b6d818a610a8a565b90508181036020830152610b818189610a8a565b90508181036040830152610b958188610a8a565b90508181036060830152610ba98187610a8a565b9050610bb86080830186610b2b565b610bc560a0830185610b44565b610bd260c0830184610b44565b98975050505050505050565b7f43726564656e7469616c20494420726571756972656400000000000000000000600082015250565b6000610c14601683610a3e565b9150610c1f82610bde565b602082019050919050565b60006020820190508181036000830152610c4381610c07565b9050919050565b600081905092915050565b82818337600083830152505050565b6000610c708385610c4a565b9350610c7d838584610c55565b82840190509392505050565b6000610c96828486610c64565b91508190509392505050565b7f43726564656e7469616c20616c72656164792072656769737465726564000000600082015250565b6000610cd8601d83610a3e565b9150610ce382610ca2565b602082019050919050565b60006020820190508181036000830152610d0781610ccb565b9050919050565b7f4e487b7100000000000000000000000000000000000000000000000000000000600052604160045260246000fd5b7f4e487b7100000000000000000000000000000000000000000000000000000000600052602260045260246000fd5b60006002820490506001821680610d8457607f821691505b602082108103610d9757610d96610d3d565b5b50919050565b60008190508160005260206000209050919050565b60006020601f8301049050919050565b600082821b905092915050565b600060088302610dff7fffffffffffffffffffffffffffffffffffffffffffffffffffffffffffffffff82610dc2565b610e098683610dc2565b95508019841693508086168417925050509392505050565b6000819050919050565b6000610e46610e41610e3c84610b3a565b610e21565b610b3a565b9050919050565b6000819050919050565b610e6083610e2b565b610e74610e6c82610e4d565b848454610dcf565b825550505050565b600090565b610e89610e7c565b610e94818484610e57565b505050565b5b81811015610eb857610ead600082610e81565b600181019050610e9a565b5050565b601f821115610efd57610ece81610d9d565b610ed784610db2565b81016020851015610ee6578190505b610efa610ef285610db2565b830182610e99565b50505b505050565b600082821c905092915050565b6000610f2060001984600802610f02565b1980831691505092915050565b6000610f398383610f0f565b9150826002028217905092915050565b610f5282610a33565b67ffffffffffffffff811115610f6b57610f6a610d0e565b5b610f758254610d6c565b610f80828285610ebc565b600060209050601f831160018114610fb35760008415610fa1578287015190505b610fab8582610f2d565b865550611013565b601f198416610fc186610d9d565b60005b82811015610fe957848901518255600182019150602085019450602081019050610fc4565b868310156110065784890151611002601f891682610f0f565b8355505b6001600288020188555050505b505050505050565b60006110278385610a3e565b9350611034838584610c55565b61103d83610a79565b840190509392505050565b600060c0820190508181036000830152611063818d8f61101b565b90508181036020830152611078818b8d61101b565b9050818103604083015261108d81898b61101b565b905081810360608301526110a281878961101b565b905081810360808301526110b781858761101b565b90506110c660a0830184610b44565b9c9b505050505050505050505050565b7f43726564656e7469616c206e6f7420666f756e64000000000000000000000000600082015250565b600061110c601483610a3e565b9150611117826110d6565b602082019050919050565b6000602082019050818103600083015261113b816110ff565b9050919050565b7f43726564656e7469616c206e6f74206163746976650000000000000000000000600082015250565b6000611178601583610a3e565b915061118382611142565b602082019050919050565b600060208201905081810360008301526111a78161116b565b9050919050565b600060408201905081810360008301526111c981858761101b565b90506111d86020830184610b44565b94935050505056fea26469706673582212200917fd8d081768e8c6e17409eda5ed7ba4247a5e52a99d6bfcae3ca0e4f7bc4564736f6c63430008140033",
  "linkReferences": {},
  "deployedLinkReferences": {}
}