{
  "_format": "hh-sol-artifact-1",
  "contractName": "DIDRegistry",
  "sourceName": "contracts/DIDRegistry.sol",
  "abi": [
    {
      "anonymous": false,
      "inputs": [
        {
          "indexed": false,
          "internalType": "string",
          "name": "did",
          "type": "string"
        },
        {
          "indexed": false,
          "internalType": "address",
          "name": "controller",
          "type": "address"
        },
        {
          "indexed": false,
          "internalType": "string",
          "name": "publicKey",
          "type": "string"
        },
        {
          "indexed": false,
          "internalType": "uint256",
          "name": "createdAt",
          "type": "uint256"
        }
      ],
      "name": "DIDRegistered",
      "type": "event"
    },
    {
      "inputs": [
        {
          "internalType": "string",
          "name": "did",
          "type": "string"
        }
      ],
      "name": "getDID",
      "outputs": [
        {
          "internalType": "address",
          "name": "controller",
          "type": "address"
        },
        {
          "internalType": "string",
          "name": "publicKey",
          "type": "string"
        },
        {
          "internalType": "uint256",
          "name": "createdAt",
          "type": "uint256"
        }
      ],
      "stateMutability": "view",
      "type": "function"
    },
    {
      "inputs": [
        {
          "internalType": "string",
          "name": "did",
          "type": "string"
        },
        {
          "internalType": "string",
          "name": "publicKey",
          "type": "string"
        }
      ],
      "name": "registerDID",
      "outputs": [],
      "stateMutability": "nonpayable",
      "type": "function"
    }
  ],
  "bytecode": "0x608060405234801561001057600080fd5b50610bb9806100206000396000f3fe608060405234801561001057600080fd5b50600436106100365760003560e01c80637e5c39e91461003b578063e078389814610057575b600080fd5b61005560048036038101906100509190610460565b610089565b005b610071600480360381019061006c91906104e1565b6102af565b60405161008093929190610618565b60405180910390f35b600084849050116100cf576040517f08c379a00000000000000000000000000000000000000000000000000000000081526004016100c6906106a2565b60405180910390fd5b600084846040516100e1929190610701565b908152602001604051809103902060030160009054906101000a900460ff1615610140576040517f08c379a000000000000000000000000000000000000000000000000000000000815260040161013790610766565b60405180910390fd5b60405180608001604052803373ffffffffffffffffffffffffffffffffffffffff16815260200183838080601f016020809104026020016040519081016040528093929190818152602001838380828437600081840152601f19601f82011690508083019250505050505050815260200142815260200160011515815250600085856040516101d0929190610701565b908152602001604051809103902060008201518160000160006101000a81548173ffffffffffffffffffffffffffffffffffffffff021916908373ffffffffffffffffffffffffffffffffffffffff160217905550602082015181600101908161023a91906109c1565b506040820151816002015560608201518160030160006101000a81548160ff0219169083151502179055509050507f49b968ac3311730480e7d106381d0cd29fbc246fe4ed01299f4c32010c5c5ac18484338585426040516102a196959493929190610ac0565b60405180910390a150505050565b60006060600080600086866040516102c8929190610701565b908152602001604051809103902090508060030160009054906101000a900460ff16610329576040517f08c379a000000000000000000000000000000000000000000000000000000000815260040161032090610b63565b60405180910390fd5b8060000160009054906101000a900473ffffffffffffffffffffffffffffffffffffffff16816001018260020154818054610363906107e4565b80601f016020809104026020016040519081016040528092919081815260200182805461038f906107e4565b80156103dc5780601f106103b1576101008083540402835291602001916103dc565b820191906000526020600020905b8154815290600101906020018083116103bf57829003601f168201915b50505050509150935093509350509250925092565b600080fd5b600080fd5b600080fd5b600080fd5b600080fd5b60008083601f8401126104205761041f6103fb565b5b8235905067ffffffffffffffff81111561043d5761043c610400565b5b60208301915083600182028301111561045957610458610405565b5b9250929050565b6000806000806040858703121561047a576104796103f1565b5b600085013567ffffffffffffffff811115610498576104976103f6565b5b6104a48782880161040a565b9450945050602085013567ffffffffffffffff8111156104c7576104c66103f6565b5b6104d38782880161040a565b925092505092959194509250565b600080602083850312156104f8576104f76103f1565b5b600083013567ffffffffffffffff811115610516576105156103f6565b5b6105228582860161040a565b92509250509250929050565b600073ffffffffffffffffffffffffffffffffffffffff82169050919050565b60006105598261052e565b9050919050565b6105698161054e565b82525050565b600081519050919050565b600082825260208201905092915050565b60005b838110156105a957808201518184015260208101905061058e565b60008484015250505050565b6000601f19601f8301169050919050565b60006105d18261056f565b6105db818561057a565b93506105eb81856020860161058b565b6105f4816105b5565b840191505092915050565b6000819050919050565b610612816105ff565b82525050565b600060608201905061062d6000830186610560565b818103602083015261063f81856105c6565b905061064e6040830184610609565b949350505050565b7f4449442072657175697265640000000000000000000000000000000000000000600082015250565b600061068c600c8361057a565b915061069782610656565b602082019050919050565b600060208201905081810360008301526106bb8161067f565b9050919050565b600081905092915050565b82818337600083830152505050565b60006106e883856106c2565b93506106f58385846106cd565b82840190509392505050565b600061070e8284866106dc565b91508190509392505050565b7f44494420616c7265616479207265676973746572656400000000000000000000600082015250565b600061075060168361057a565b915061075b8261071a565b602082019050919050565b6000602082019050818103600083015261077f81610743565b9050919050565b7f4e487b7100000000000000000000000000000000000000000000000000000000600052604160045260246000fd5b7f4e487b7100000000000000000000000000000000000000000000000000000000600052602260045260246000fd5b600060028204905060018216806107fc57607f821691505b60208210810361080f5761080e6107b5565b5b50919050565b60008190508160005260206000209050919050565b60006020601f8301049050919050565b600082821b905092915050565b6000600883026108777fffffffffffffffffffffffffffffffffffffffffffffffffffffffffffffffff8261083a565b610881868361083a565b95508019841693508086168417925050509392505050565b6000819050919050565b60006108be6108b96108b4846105ff565b610899565b6105ff565b9050919050565b6000819050919050565b6108d8836108a3565b6108ec6108e4826108c5565b848454610847565b825550505050565b600090565b6109016108f4565b61090c8184846108cf565b505050565b5b81811015610930576109256000826108f9565b600181019050610912565b5050565b601f8211156109755761094681610815565b61094f8461082a565b8101602085101561095e578190505b61097261096a8561082a565b830182610911565b50505b505050565b600082821c905092915050565b60006109986000198460080261097a565b1980831691505092915050565b60006109b18383610987565b9150826002028217905092915050565b6109ca8261056f565b67ffffffffffffffff8111156109e3576109e2610786565b5b6109ed82546107e4565b6109f8828285610934565b600060209050601f831160018114610a2b5760008415610a19578287015190505b610a2385826109a5565b865550610a8b565b601f198416610a3986610815565b60005b82811015610a6157848901518255600182019150602085019450602081019050610a3c565b86831015610a7e5784890151610a7a601f891682610987565b8355505b6001600288020188555050505b505050505050565b6000610a9f838561057a565b9350610aac8385846106cd565b610ab5836105b5565b840190509392505050565b60006080820190508181036000830152610adb81888a610a93565b9050610aea6020830187610560565b8181036040830152610afd818587610a93565b9050610b0c6060830184610609565b979650505050505050565b7f444944206e6f7420666f756e6400000000000000000000000000000000000000600082015250565b6000610b4d600d8361057a565b9150610b5882610b17565b602082019050919050565b60006020820190508181036000830152610b7c81610b40565b905091905056fea26469706673582212209b9c8c4f1474f229b7f2ce29b74b1871475adc970bc0c3833ae53dc679476bc864736f6c63430008140033",
  "linkReferences": {},
  "deployedLinkReferences": {}
}